{
  "_format": "hh-sol-artifact-1",
  "contractName": "FiredGuys",
  "sourceName": "contracts/MyNFT.sol",
  "abi": [
    {
      "inputs": [],
      "stateMutability": "nonpayable",
      "type": "constructor"
    },
    {
      "anonymous": false,
      "inputs": [
        {
          "indexed": true,
          "internalType": "address",
          "name": "owner",
          "type": "address"
        },
        {
          "indexed": true,
          "internalType": "address",
          "name": "approved",
          "type": "address"
        },
        {
          "indexed": true,
          "internalType": "uint256",
          "name": "tokenId",
          "type": "uint256"
        }
      ],
      "name": "Approval",
      "type": "event"
    },
    {
      "anonymous": false,
      "inputs": [
        {
          "indexed": true,
          "internalType": "address",
          "name": "owner",
          "type": "address"
        },
        {
          "indexed": true,
          "internalType": "address",
          "name": "operator",
          "type": "address"
        },
        {
          "indexed": false,
          "internalType": "bool",
          "name": "approved",
          "type": "bool"
        }
      ],
      "name": "ApprovalForAll",
      "type": "event"
    },
    {
      "anonymous": false,
      "inputs": [
        {
          "indexed": true,
          "internalType": "address",
          "name": "previousOwner",
          "type": "address"
        },
        {
          "indexed": true,
          "internalType": "address",
          "name": "newOwner",
          "type": "address"
        }
      ],
      "name": "OwnershipTransferred",
      "type": "event"
    },
    {
      "anonymous": false,
      "inputs": [
        {
          "indexed": true,
          "internalType": "address",
          "name": "from",
          "type": "address"
        },
        {
          "indexed": true,
          "internalType": "address",
          "name": "to",
          "type": "address"
        },
        {
          "indexed": true,
          "internalType": "uint256",
          "name": "tokenId",
          "type": "uint256"
        }
      ],
      "name": "Transfer",
      "type": "event"
    },
    {
      "inputs": [
        {
          "internalType": "address",
          "name": "to",
          "type": "address"
        },
        {
          "internalType": "uint256",
          "name": "tokenId",
          "type": "uint256"
        }
      ],
      "name": "approve",
      "outputs": [],
      "stateMutability": "nonpayable",
      "type": "function"
    },
    {
      "inputs": [
        {
          "internalType": "address",
          "name": "owner",
          "type": "address"
        }
      ],
      "name": "balanceOf",
      "outputs": [
        {
          "internalType": "uint256",
          "name": "",
          "type": "uint256"
        }
      ],
      "stateMutability": "view",
      "type": "function"
    },
    {
      "inputs": [
        {
          "internalType": "address[]",
          "name": "recipients",
          "type": "address[]"
        },
        {
          "internalType": "string[]",
          "name": "metadataURIs",
          "type": "string[]"
        },
        {
          "internalType": "string[]",
          "name": "values",
          "type": "string[]"
        }
      ],
      "name": "batchMintAcademicDocuments",
      "outputs": [
        {
          "internalType": "uint256[]",
          "name": "",
          "type": "uint256[]"
        }
      ],
      "stateMutability": "nonpayable",
      "type": "function"
    },
    {
      "inputs": [],
      "name": "count",
      "outputs": [
        {
          "internalType": "uint256",
          "name": "",
          "type": "uint256"
        }
      ],
      "stateMutability": "view",
      "type": "function"
    },
    {
      "inputs": [
        {
          "internalType": "uint256",
          "name": "tokenId",
          "type": "uint256"
        }
      ],
      "name": "getApproved",
      "outputs": [
        {
          "internalType": "address",
          "name": "",
          "type": "address"
        }
      ],
      "stateMutability": "view",
      "type": "function"
    },
    {
      "inputs": [
        {
          "internalType": "uint256",
          "name": "itemId",
          "type": "uint256"
        }
      ],
      "name": "getMintedValue",
      "outputs": [
        {
          "internalType": "string",
          "name": "",
          "type": "string"
        }
      ],
      "stateMutability": "view",
      "type": "function"
    },
    {
      "inputs": [
        {
          "internalType": "address",
          "name": "owner",
          "type": "address"
        },
        {
          "internalType": "address",
          "name": "operator",
          "type": "address"
        }
      ],
      "name": "isApprovedForAll",
      "outputs": [
        {
          "internalType": "bool",
          "name": "",
          "type": "bool"
        }
      ],
      "stateMutability": "view",
      "type": "function"
    },
    {
      "inputs": [
        {
          "internalType": "string",
          "name": "uri",
          "type": "string"
        }
      ],
      "name": "isContentOwned",
      "outputs": [
        {
          "internalType": "bool",
          "name": "",
          "type": "bool"
        }
      ],
      "stateMutability": "view",
      "type": "function"
    },
    {
      "inputs": [
        {
          "internalType": "address",
          "name": "recipient",
          "type": "address"
        },
        {
          "internalType": "string",
          "name": "metadataURI",
          "type": "string"
        },
        {
          "internalType": "string",
          "name": "value",
          "type": "string"
        }
      ],
      "name": "mintAcademicDocument",
      "outputs": [
        {
          "internalType": "uint256",
          "name": "",
          "type": "uint256"
        }
      ],
      "stateMutability": "nonpayable",
      "type": "function"
    },
    {
      "inputs": [],
      "name": "name",
      "outputs": [
        {
          "internalType": "string",
          "name": "",
          "type": "string"
        }
      ],
      "stateMutability": "view",
      "type": "function"
    },
    {
      "inputs": [],
      "name": "owner",
      "outputs": [
        {
          "internalType": "address",
          "name": "",
          "type": "address"
        }
      ],
      "stateMutability": "view",
      "type": "function"
    },
    {
      "inputs": [
        {
          "internalType": "uint256",
          "name": "tokenId",
          "type": "uint256"
        }
      ],
      "name": "ownerOf",
      "outputs": [
        {
          "internalType": "address",
          "name": "",
          "type": "address"
        }
      ],
      "stateMutability": "view",
      "type": "function"
    },
    {
      "inputs": [],
      "name": "renounceOwnership",
      "outputs": [],
      "stateMutability": "nonpayable",
      "type": "function"
    },
    {
      "inputs": [
        {
          "internalType": "address",
          "name": "to",
          "type": "address"
        },
        {
          "internalType": "string",
          "name": "uri",
          "type": "string"
        }
      ],
      "name": "safeMint",
      "outputs": [],
      "stateMutability": "nonpayable",
      "type": "function"
    },
    {
      "inputs": [
        {
          "internalType": "address",
          "name": "from",
          "type": "address"
        },
        {
          "internalType": "address",
          "name": "to",
          "type": "address"
        },
        {
          "internalType": "uint256",
          "name": "tokenId",
          "type": "uint256"
        }
      ],
      "name": "safeTransferFrom",
      "outputs": [],
      "stateMutability": "nonpayable",
      "type": "function"
    },
    {
      "inputs": [
        {
          "internalType": "address",
          "name": "from",
          "type": "address"
        },
        {
          "internalType": "address",
          "name": "to",
          "type": "address"
        },
        {
          "internalType": "uint256",
          "name": "tokenId",
          "type": "uint256"
        },
        {
          "internalType": "bytes",
          "name": "data",
          "type": "bytes"
        }
      ],
      "name": "safeTransferFrom",
      "outputs": [],
      "stateMutability": "nonpayable",
      "type": "function"
    },
    {
      "inputs": [
        {
          "internalType": "address",
          "name": "operator",
          "type": "address"
        },
        {
          "internalType": "bool",
          "name": "approved",
          "type": "bool"
        }
      ],
      "name": "setApprovalForAll",
      "outputs": [],
      "stateMutability": "nonpayable",
      "type": "function"
    },
    {
      "inputs": [
        {
          "internalType": "bytes4",
          "name": "interfaceId",
          "type": "bytes4"
        }
      ],
      "name": "supportsInterface",
      "outputs": [
        {
          "internalType": "bool",
          "name": "",
          "type": "bool"
        }
      ],
      "stateMutability": "view",
      "type": "function"
    },
    {
      "inputs": [],
      "name": "symbol",
      "outputs": [
        {
          "internalType": "string",
          "name": "",
          "type": "string"
        }
      ],
      "stateMutability": "view",
      "type": "function"
    },
    {
      "inputs": [
        {
          "internalType": "uint256",
          "name": "tokenId",
          "type": "uint256"
        }
      ],
      "name": "tokenURI",
      "outputs": [
        {
          "internalType": "string",
          "name": "",
          "type": "string"
        }
      ],
      "stateMutability": "view",
      "type": "function"
    },
    {
      "inputs": [
        {
          "internalType": "address",
          "name": "from",
          "type": "address"
        },
        {
          "internalType": "address",
          "name": "to",
          "type": "address"
        },
        {
          "internalType": "uint256",
          "name": "tokenId",
          "type": "uint256"
        }
      ],
      "name": "transferFrom",
      "outputs": [],
      "stateMutability": "nonpayable",
      "type": "function"
    },
    {
      "inputs": [
        {
          "internalType": "address",
          "name": "newOwner",
          "type": "address"
        }
      ],
      "name": "transferOwnership",
      "outputs": [],
      "stateMutability": "nonpayable",
      "type": "function"
    }
  ],
  "bytecode": "0x60806040523480156200001157600080fd5b506040518060400160405280601781526020017f437653552041636164656d696320446f63756d656e74730000000000000000008152506040518060400160405280600481526020017f437653550000000000000000000000000000000000000000000000000000000081525081600090816200008f919062000412565b508060019081620000a1919062000412565b505050620000c4620000b8620000ca60201b60201c565b620000d260201b60201c565b620004f9565b600033905090565b6000600760009054906101000a900473ffffffffffffffffffffffffffffffffffffffff16905081600760006101000a81548173ffffffffffffffffffffffffffffffffffffffff021916908373ffffffffffffffffffffffffffffffffffffffff1602179055508173ffffffffffffffffffffffffffffffffffffffff168173ffffffffffffffffffffffffffffffffffffffff167f8be0079c531659141344cd1fd0a4f28419497f9722a3daafe3b4186f6b6457e060405160405180910390a35050565b600081519050919050565b7f4e487b7100000000000000000000000000000000000000000000000000000000600052604160045260246000fd5b7f4e487b7100000000000000000000000000000000000000000000000000000000600052602260045260246000fd5b600060028204905060018216806200021a57607f821691505b60208210810362000230576200022f620001d2565b5b50919050565b60008190508160005260206000209050919050565b60006020601f8301049050919050565b600082821b905092915050565b6000600883026200029a7fffffffffffffffffffffffffffffffffffffffffffffffffffffffffffffffff826200025b565b620002a686836200025b565b95508019841693508086168417925050509392505050565b6000819050919050565b6000819050919050565b6000620002f3620002ed620002e784620002be565b620002c8565b620002be565b9050919050565b6000819050919050565b6200030f83620002d2565b620003276200031e82620002fa565b84845462000268565b825550505050565b600090565b6200033e6200032f565b6200034b81848462000304565b505050565b5b8181101562000373576200036760008262000334565b60018101905062000351565b5050565b601f821115620003c2576200038c8162000236565b62000397846200024b565b81016020851015620003a7578190505b620003bf620003b6856200024b565b83018262000350565b50505b505050565b600082821c905092915050565b6000620003e760001984600802620003c7565b1980831691505092915050565b6000620004028383620003d4565b9150826002028217905092915050565b6200041d8262000198565b67ffffffffffffffff811115620004395762000438620001a3565b5b62000445825462000201565b6200045282828562000377565b600060209050601f8311600181146200048a576000841562000475578287015190505b620004818582620003f4565b865550620004f1565b601f1984166200049a8662000236565b60005b82811015620004c4578489015182556001820191506020850194506020810190506200049d565b86831015620004e45784890151620004e0601f891682620003d4565b8355505b6001600288020188555050505b505050505050565b61383480620005096000396000f3fe608060405234801561001057600080fd5b50600436106101425760003560e01c8063769aa992116100b8578063b88d4fde1161007c578063b88d4fde14610389578063c87b56dd146103a5578063d204c45e146103d5578063e985e9c5146103f1578063ec6f962014610421578063f2fde38b1461045157610142565b8063769aa992146102d15780638da5cb5b1461030157806395d89b411461031f5780639f1cabc61461033d578063a22cb4651461036d57610142565b806323b872dd1161010a57806323b872dd146101ff57806342842e0e1461021b57806352836ce1146102375780636352211e1461026757806370a0823114610297578063715018a6146102c757610142565b806301ffc9a71461014757806306661abd1461017757806306fdde0314610195578063081812fc146101b3578063095ea7b3146101e3575b600080fd5b610161600480360381019061015c919061208c565b61046d565b60405161016e91906120d4565b60405180910390f35b61017f61054f565b60405161018c9190612108565b60405180910390f35b61019d610560565b6040516101aa91906121b3565b60405180910390f35b6101cd60048036038101906101c89190612201565b6105f2565b6040516101da919061226f565b60405180910390f35b6101fd60048036038101906101f891906122b6565b610638565b005b610219600480360381019061021491906122f6565b61074f565b005b610235600480360381019061023091906122f6565b6107af565b005b610251600480360381019061024c9190612201565b6107cf565b60405161025e91906121b3565b60405180910390f35b610281600480360381019061027c9190612201565b610874565b60405161028e919061226f565b60405180910390f35b6102b160048036038101906102ac9190612349565b6108fa565b6040516102be9190612108565b60405180910390f35b6102cf6109b1565b005b6102eb60048036038101906102e691906124ab565b6109c5565b6040516102f89190612108565b60405180910390f35b610309610ac8565b604051610316919061226f565b60405180910390f35b610327610af2565b60405161033491906121b3565b60405180910390f35b61035760048036038101906103529190612536565b610b84565b60405161036491906120d4565b60405180910390f35b610387600480360381019061038291906125ab565b610bbf565b005b6103a3600480360381019061039e919061268c565b610bd5565b005b6103bf60048036038101906103ba9190612201565b610c37565b6040516103cc91906121b3565b60405180910390f35b6103ef60048036038101906103ea919061270f565b610c49565b005b61040b6004803603810190610406919061276b565b610c82565b60405161041891906120d4565b60405180910390f35b61043b60048036038101906104369190612954565b610d16565b6040516104489190612ab9565b60405180910390f35b61046b60048036038101906104669190612349565b610e5a565b005b60007f80ac58cd000000000000000000000000000000000000000000000000000000007bffffffffffffffffffffffffffffffffffffffffffffffffffffffff1916827bffffffffffffffffffffffffffffffffffffffffffffffffffffffff1916148061053857507f5b5e139f000000000000000000000000000000000000000000000000000000007bffffffffffffffffffffffffffffffffffffffffffffffffffffffff1916827bffffffffffffffffffffffffffffffffffffffffffffffffffffffff1916145b80610548575061054782610edd565b5b9050919050565b600061055b6009610f47565b905090565b60606000805461056f90612b0a565b80601f016020809104026020016040519081016040528092919081815260200182805461059b90612b0a565b80156105e85780601f106105bd576101008083540402835291602001916105e8565b820191906000526020600020905b8154815290600101906020018083116105cb57829003601f168201915b5050505050905090565b60006105fd82610f55565b6004600083815260200190815260200160002060009054906101000a900473ffffffffffffffffffffffffffffffffffffffff169050919050565b600061064382610874565b90508073ffffffffffffffffffffffffffffffffffffffff168373ffffffffffffffffffffffffffffffffffffffff16036106b3576040517f08c379a00000000000000000000000000000000000000000000000000000000081526004016106aa90612bad565b60405180910390fd5b8073ffffffffffffffffffffffffffffffffffffffff166106d2610fa0565b73ffffffffffffffffffffffffffffffffffffffff1614806107015750610700816106fb610fa0565b610c82565b5b610740576040517f08c379a000000000000000000000000000000000000000000000000000000000815260040161073790612c3f565b60405180910390fd5b61074a8383610fa8565b505050565b61076061075a610fa0565b82611061565b61079f576040517f08c379a000000000000000000000000000000000000000000000000000000000815260040161079690612cd1565b60405180910390fd5b6107aa8383836110f6565b505050565b6107ca83838360405180602001604052806000815250610bd5565b505050565b60606008600083815260200190815260200160002080546107ef90612b0a565b80601f016020809104026020016040519081016040528092919081815260200182805461081b90612b0a565b80156108685780601f1061083d57610100808354040283529160200191610868565b820191906000526020600020905b81548152906001019060200180831161084b57829003601f168201915b50505050509050919050565b600080610880836113ef565b9050600073ffffffffffffffffffffffffffffffffffffffff168173ffffffffffffffffffffffffffffffffffffffff16036108f1576040517f08c379a00000000000000000000000000000000000000000000000000000000081526004016108e890612d3d565b60405180910390fd5b80915050919050565b60008073ffffffffffffffffffffffffffffffffffffffff168273ffffffffffffffffffffffffffffffffffffffff160361096a576040517f08c379a000000000000000000000000000000000000000000000000000000000815260040161096190612dcf565b60405180910390fd5b600360008373ffffffffffffffffffffffffffffffffffffffff1673ffffffffffffffffffffffffffffffffffffffff168152602001908152602001600020549050919050565b6109b961142c565b6109c360006114aa565b565b60006001600a846040516109d99190612e2b565b908152602001604051809103902060009054906101000a900460ff1660ff1603610a38576040517f08c379a0000000000000000000000000000000000000000000000000000000008152600401610a2f90612e8e565b60405180910390fd5b6000610a446009610f47565b9050610a506009611570565b6001600a85604051610a629190612e2b565b908152602001604051809103902060006101000a81548160ff021916908360ff160217905550610a928582611586565b610a9c81856117a3565b82600860008381526020019081526020016000209081610abc919061305a565b50809150509392505050565b6000600760009054906101000a900473ffffffffffffffffffffffffffffffffffffffff16905090565b606060018054610b0190612b0a565b80601f0160208091040260200160405190810160405280929190818152602001828054610b2d90612b0a565b8015610b7a5780601f10610b4f57610100808354040283529160200191610b7a565b820191906000526020600020905b815481529060010190602001808311610b5d57829003601f168201915b5050505050905090565b60006001600a83604051610b989190612e2b565b908152602001604051809103902060009054906101000a900460ff1660ff16149050919050565b610bd1610bca610fa0565b8383611810565b5050565b610be6610be0610fa0565b83611061565b610c25576040517f08c379a0000000000000000000000000000000000000000000000000000000008152600401610c1c90612cd1565b60405180910390fd5b610c318484848461197c565b50505050565b6060610c42826119d8565b9050919050565b610c5161142c565b6000610c5d6009610f47565b9050610c696009611570565b610c738382611aea565b610c7d81836117a3565b505050565b6000600560008473ffffffffffffffffffffffffffffffffffffffff1673ffffffffffffffffffffffffffffffffffffffff16815260200190815260200160002060008373ffffffffffffffffffffffffffffffffffffffff1673ffffffffffffffffffffffffffffffffffffffff16815260200190815260200160002060009054906101000a900460ff16905092915050565b606082518451148015610d2a575081518451145b610d69576040517f08c379a0000000000000000000000000000000000000000000000000000000008152600401610d6090613178565b60405180910390fd5b6000845167ffffffffffffffff811115610d8657610d85612380565b5b604051908082528060200260200182016040528015610db45781602001602082028036833780820191505090505b50905060005b8551811015610e4e57610e1c868281518110610dd957610dd8613198565b5b6020026020010151868381518110610df457610df3613198565b5b6020026020010151868481518110610e0f57610e0e613198565b5b60200260200101516109c5565b828281518110610e2f57610e2e613198565b5b6020026020010181815250508080610e46906131f6565b915050610dba565b50809150509392505050565b610e6261142c565b600073ffffffffffffffffffffffffffffffffffffffff168173ffffffffffffffffffffffffffffffffffffffff1603610ed1576040517f08c379a0000000000000000000000000000000000000000000000000000000008152600401610ec8906132b0565b60405180910390fd5b610eda816114aa565b50565b60007f01ffc9a7000000000000000000000000000000000000000000000000000000007bffffffffffffffffffffffffffffffffffffffffffffffffffffffff1916827bffffffffffffffffffffffffffffffffffffffffffffffffffffffff1916149050919050565b600081600001549050919050565b610f5e81611b08565b610f9d576040517f08c379a0000000000000000000000000000000000000000000000000000000008152600401610f9490612d3d565b60405180910390fd5b50565b600033905090565b816004600083815260200190815260200160002060006101000a81548173ffffffffffffffffffffffffffffffffffffffff021916908373ffffffffffffffffffffffffffffffffffffffff160217905550808273ffffffffffffffffffffffffffffffffffffffff1661101b83610874565b73ffffffffffffffffffffffffffffffffffffffff167f8c5be1e5ebec7d5bd14f71427d1e84f3dd0314c0f7b2291e5b200ac8c7c3b92560405160405180910390a45050565b60008061106d83610874565b90508073ffffffffffffffffffffffffffffffffffffffff168473ffffffffffffffffffffffffffffffffffffffff1614806110af57506110ae8185610c82565b5b806110ed57508373ffffffffffffffffffffffffffffffffffffffff166110d5846105f2565b73ffffffffffffffffffffffffffffffffffffffff16145b91505092915050565b8273ffffffffffffffffffffffffffffffffffffffff1661111682610874565b73ffffffffffffffffffffffffffffffffffffffff161461116c576040517f08c379a000000000000000000000000000000000000000000000000000000000815260040161116390613342565b60405180910390fd5b600073ffffffffffffffffffffffffffffffffffffffff168273ffffffffffffffffffffffffffffffffffffffff16036111db576040517f08c379a00000000000000000000000000000000000000000000000000000000081526004016111d2906133d4565b60405180910390fd5b6111e88383836001611b49565b8273ffffffffffffffffffffffffffffffffffffffff1661120882610874565b73ffffffffffffffffffffffffffffffffffffffff161461125e576040517f08c379a000000000000000000000000000000000000000000000000000000000815260040161125590613342565b60405180910390fd5b6004600082815260200190815260200160002060006101000a81549073ffffffffffffffffffffffffffffffffffffffff02191690556001600360008573ffffffffffffffffffffffffffffffffffffffff1673ffffffffffffffffffffffffffffffffffffffff168152602001908152602001600020600082825403925050819055506001600360008473ffffffffffffffffffffffffffffffffffffffff1673ffffffffffffffffffffffffffffffffffffffff16815260200190815260200160002060008282540192505081905550816002600083815260200190815260200160002060006101000a81548173ffffffffffffffffffffffffffffffffffffffff021916908373ffffffffffffffffffffffffffffffffffffffff160217905550808273ffffffffffffffffffffffffffffffffffffffff168473ffffffffffffffffffffffffffffffffffffffff167fddf252ad1be2c89b69c2b068fc378daa952ba7f163c4a11628f55a4df523b3ef60405160405180910390a46113ea8383836001611b4f565b505050565b60006002600083815260200190815260200160002060009054906101000a900473ffffffffffffffffffffffffffffffffffffffff169050919050565b611434610fa0565b73ffffffffffffffffffffffffffffffffffffffff16611452610ac8565b73ffffffffffffffffffffffffffffffffffffffff16146114a8576040517f08c379a000000000000000000000000000000000000000000000000000000000815260040161149f90613440565b60405180910390fd5b565b6000600760009054906101000a900473ffffffffffffffffffffffffffffffffffffffff16905081600760006101000a81548173ffffffffffffffffffffffffffffffffffffffff021916908373ffffffffffffffffffffffffffffffffffffffff1602179055508173ffffffffffffffffffffffffffffffffffffffff168173ffffffffffffffffffffffffffffffffffffffff167f8be0079c531659141344cd1fd0a4f28419497f9722a3daafe3b4186f6b6457e060405160405180910390a35050565b6001816000016000828254019250508190555050565b600073ffffffffffffffffffffffffffffffffffffffff168273ffffffffffffffffffffffffffffffffffffffff16036115f5576040517f08c379a00000000000000000000000000000000000000000000000000000000081526004016115ec906134ac565b60405180910390fd5b6115fe81611b08565b1561163e576040517f08c379a000000000000000000000000000000000000000000000000000000000815260040161163590613518565b60405180910390fd5b61164c600083836001611b49565b61165581611b08565b15611695576040517f08c379a000000000000000000000000000000000000000000000000000000000815260040161168c90613518565b60405180910390fd5b6001600360008473ffffffffffffffffffffffffffffffffffffffff1673ffffffffffffffffffffffffffffffffffffffff16815260200190815260200160002060008282540192505081905550816002600083815260200190815260200160002060006101000a81548173ffffffffffffffffffffffffffffffffffffffff021916908373ffffffffffffffffffffffffffffffffffffffff160217905550808273ffffffffffffffffffffffffffffffffffffffff16600073ffffffffffffffffffffffffffffffffffffffff167fddf252ad1be2c89b69c2b068fc378daa952ba7f163c4a11628f55a4df523b3ef60405160405180910390a461179f600083836001611b4f565b5050565b6117ac82611b08565b6117eb576040517f08c379a00000000000000000000000000000000000000000000000000000000081526004016117e2906135aa565b60405180910390fd5b8060066000848152602001908152602001600020908161180b919061305a565b505050565b8173ffffffffffffffffffffffffffffffffffffffff168373ffffffffffffffffffffffffffffffffffffffff160361187e576040517f08c379a000000000000000000000000000000000000000000000000000000000815260040161187590613616565b60405180910390fd5b80600560008573ffffffffffffffffffffffffffffffffffffffff1673ffffffffffffffffffffffffffffffffffffffff16815260200190815260200160002060008473ffffffffffffffffffffffffffffffffffffffff1673ffffffffffffffffffffffffffffffffffffffff16815260200190815260200160002060006101000a81548160ff0219169083151502179055508173ffffffffffffffffffffffffffffffffffffffff168373ffffffffffffffffffffffffffffffffffffffff167f17307eab39ab6107e8899845ad3d59bd9653f200f220920489ca2b5937696c318360405161196f91906120d4565b60405180910390a3505050565b6119878484846110f6565b61199384848484611b55565b6119d2576040517f08c379a00000000000000000000000000000000000000000000000000000000081526004016119c9906136a8565b60405180910390fd5b50505050565b60606119e382610f55565b6000600660008481526020019081526020016000208054611a0390612b0a565b80601f0160208091040260200160405190810160405280929190818152602001828054611a2f90612b0a565b8015611a7c5780601f10611a5157610100808354040283529160200191611a7c565b820191906000526020600020905b815481529060010190602001808311611a5f57829003601f168201915b505050505090506000611a8d611cdc565b90506000815103611aa2578192505050611ae5565b600082511115611ad7578082604051602001611abf9291906136c8565b60405160208183030381529060405292505050611ae5565b611ae084611d19565b925050505b919050565b611b04828260405180602001604052806000815250611d81565b5050565b60008073ffffffffffffffffffffffffffffffffffffffff16611b2a836113ef565b73ffffffffffffffffffffffffffffffffffffffff1614159050919050565b50505050565b50505050565b6000611b768473ffffffffffffffffffffffffffffffffffffffff16611ddc565b15611ccf578373ffffffffffffffffffffffffffffffffffffffff1663150b7a02611b9f610fa0565b8786866040518563ffffffff1660e01b8152600401611bc19493929190613741565b6020604051808303816000875af1925050508015611bfd57506040513d601f19601f82011682018060405250810190611bfa91906137a2565b60015b611c7f573d8060008114611c2d576040519150601f19603f3d011682016040523d82523d6000602084013e611c32565b606091505b506000815103611c77576040517f08c379a0000000000000000000000000000000000000000000000000000000008152600401611c6e906136a8565b60405180910390fd5b805181602001fd5b63150b7a0260e01b7bffffffffffffffffffffffffffffffffffffffffffffffffffffffff1916817bffffffffffffffffffffffffffffffffffffffffffffffffffffffff191614915050611cd4565b600190505b949350505050565b60606040518060400160405280600781526020017f697066733a2f2f00000000000000000000000000000000000000000000000000815250905090565b6060611d2482610f55565b6000611d2e611cdc565b90506000815111611d4e5760405180602001604052806000815250611d79565b80611d5884611dff565b604051602001611d699291906136c8565b6040516020818303038152906040525b915050919050565b611d8b8383611586565b611d986000848484611b55565b611dd7576040517f08c379a0000000000000000000000000000000000000000000000000000000008152600401611dce906136a8565b60405180910390fd5b505050565b6000808273ffffffffffffffffffffffffffffffffffffffff163b119050919050565b606060006001611e0e84611ecd565b01905060008167ffffffffffffffff811115611e2d57611e2c612380565b5b6040519080825280601f01601f191660200182016040528015611e5f5781602001600182028036833780820191505090505b509050600082602001820190505b600115611ec2578080600190039150507f3031323334353637383961626364656600000000000000000000000000000000600a86061a8153600a8581611eb657611eb56137cf565b5b04945060008503611e6d575b819350505050919050565b600080600090507a184f03e93ff9f4daa797ed6e38ed64bf6a1f0100000000000000008310611f2b577a184f03e93ff9f4daa797ed6e38ed64bf6a1f0100000000000000008381611f2157611f206137cf565b5b0492506040810190505b6d04ee2d6d415b85acef81000000008310611f68576d04ee2d6d415b85acef81000000008381611f5e57611f5d6137cf565b5b0492506020810190505b662386f26fc100008310611f9757662386f26fc100008381611f8d57611f8c6137cf565b5b0492506010810190505b6305f5e1008310611fc0576305f5e1008381611fb657611fb56137cf565b5b0492506008810190505b6127108310611fe5576127108381611fdb57611fda6137cf565b5b0492506004810190505b606483106120085760648381611ffe57611ffd6137cf565b5b0492506002810190505b600a8310612017576001810190505b80915050919050565b6000604051905090565b600080fd5b600080fd5b60007fffffffff0000000000000000000000000000000000000000000000000000000082169050919050565b61206981612034565b811461207457600080fd5b50565b60008135905061208681612060565b92915050565b6000602082840312156120a2576120a161202a565b5b60006120b084828501612077565b91505092915050565b60008115159050919050565b6120ce816120b9565b82525050565b60006020820190506120e960008301846120c5565b92915050565b6000819050919050565b612102816120ef565b82525050565b600060208201905061211d60008301846120f9565b92915050565b600081519050919050565b600082825260208201905092915050565b60005b8381101561215d578082015181840152602081019050612142565b60008484015250505050565b6000601f19601f8301169050919050565b600061218582612123565b61218f818561212e565b935061219f81856020860161213f565b6121a881612169565b840191505092915050565b600060208201905081810360008301526121cd818461217a565b905092915050565b6121de816120ef565b81146121e957600080fd5b50565b6000813590506121fb816121d5565b92915050565b6000602082840312156122175761221661202a565b5b6000612225848285016121ec565b91505092915050565b600073ffffffffffffffffffffffffffffffffffffffff82169050919050565b60006122598261222e565b9050919050565b6122698161224e565b82525050565b60006020820190506122846000830184612260565b92915050565b6122938161224e565b811461229e57600080fd5b50565b6000813590506122b08161228a565b92915050565b600080604083850312156122cd576122cc61202a565b5b60006122db858286016122a1565b92505060206122ec858286016121ec565b9150509250929050565b60008060006060848603121561230f5761230e61202a565b5b600061231d868287016122a1565b935050602061232e868287016122a1565b925050604061233f868287016121ec565b9150509250925092565b60006020828403121561235f5761235e61202a565b5b600061236d848285016122a1565b91505092915050565b600080fd5b600080fd5b7f4e487b7100000000000000000000000000000000000000000000000000000000600052604160045260246000fd5b6123b882612169565b810181811067ffffffffffffffff821117156123d7576123d6612380565b5b80604052505050565b60006123ea612020565b90506123f682826123af565b919050565b600067ffffffffffffffff82111561241657612415612380565b5b61241f82612169565b9050602081019050919050565b82818337600083830152505050565b600061244e612449846123fb565b6123e0565b90508281526020810184848401111561246a5761246961237b565b5b61247584828561242c565b509392505050565b600082601f83011261249257612491612376565b5b81356124a284826020860161243b565b91505092915050565b6000806000606084860312156124c4576124c361202a565b5b60006124d2868287016122a1565b935050602084013567ffffffffffffffff8111156124f3576124f261202f565b5b6124ff8682870161247d565b925050604084013567ffffffffffffffff8111156125205761251f61202f565b5b61252c8682870161247d565b9150509250925092565b60006020828403121561254c5761254b61202a565b5b600082013567ffffffffffffffff81111561256a5761256961202f565b5b6125768482850161247d565b91505092915050565b612588816120b9565b811461259357600080fd5b50565b6000813590506125a58161257f565b92915050565b600080604083850312156125c2576125c161202a565b5b60006125d0858286016122a1565b92505060206125e185828601612596565b9150509250929050565b600067ffffffffffffffff82111561260657612605612380565b5b61260f82612169565b9050602081019050919050565b600061262f61262a846125eb565b6123e0565b90508281526020810184848401111561264b5761264a61237b565b5b61265684828561242c565b509392505050565b600082601f83011261267357612672612376565b5b813561268384826020860161261c565b91505092915050565b600080600080608085870312156126a6576126a561202a565b5b60006126b4878288016122a1565b94505060206126c5878288016122a1565b93505060406126d6878288016121ec565b925050606085013567ffffffffffffffff8111156126f7576126f661202f565b5b6127038782880161265e565b91505092959194509250565b600080604083850312156127265761272561202a565b5b6000612734858286016122a1565b925050602083013567ffffffffffffffff8111156127555761275461202f565b5b6127618582860161247d565b9150509250929050565b600080604083850312156127825761278161202a565b5b6000612790858286016122a1565b92505060206127a1858286016122a1565b9150509250929050565b600067ffffffffffffffff8211156127c6576127c5612380565b5b602082029050602081019050919050565b600080fd5b60006127ef6127ea846127ab565b6123e0565b90508083825260208201905060208402830185811115612812576128116127d7565b5b835b8181101561283b578061282788826122a1565b845260208401935050602081019050612814565b5050509392505050565b600082601f83011261285a57612859612376565b5b813561286a8482602086016127dc565b91505092915050565b600067ffffffffffffffff82111561288e5761288d612380565b5b602082029050602081019050919050565b60006128b26128ad84612873565b6123e0565b905080838252602082019050602084028301858111156128d5576128d46127d7565b5b835b8181101561291c57803567ffffffffffffffff8111156128fa576128f9612376565b5b808601612907898261247d565b855260208501945050506020810190506128d7565b5050509392505050565b600082601f83011261293b5761293a612376565b5b813561294b84826020860161289f565b91505092915050565b60008060006060848603121561296d5761296c61202a565b5b600084013567ffffffffffffffff81111561298b5761298a61202f565b5b61299786828701612845565b935050602084013567ffffffffffffffff8111156129b8576129b761202f565b5b6129c486828701612926565b925050604084013567ffffffffffffffff8111156129e5576129e461202f565b5b6129f186828701612926565b9150509250925092565b600081519050919050565b600082825260208201905092915050565b6000819050602082019050919050565b612a30816120ef565b82525050565b6000612a428383612a27565b60208301905092915050565b6000602082019050919050565b6000612a66826129fb565b612a708185612a06565b9350612a7b83612a17565b8060005b83811015612aac578151612a938882612a36565b9750612a9e83612a4e565b925050600181019050612a7f565b5085935050505092915050565b60006020820190508181036000830152612ad38184612a5b565b905092915050565b7f4e487b7100000000000000000000000000000000000000000000000000000000600052602260045260246000fd5b60006002820490506001821680612b2257607f821691505b602082108103612b3557612b34612adb565b5b50919050565b7f4552433732313a20617070726f76616c20746f2063757272656e74206f776e6560008201527f7200000000000000000000000000000000000000000000000000000000000000602082015250565b6000612b9760218361212e565b9150612ba282612b3b565b604082019050919050565b60006020820190508181036000830152612bc681612b8a565b9050919050565b7f4552433732313a20617070726f76652063616c6c6572206973206e6f7420746f60008201527f6b656e206f776e6572206f7220617070726f76656420666f7220616c6c000000602082015250565b6000612c29603d8361212e565b9150612c3482612bcd565b604082019050919050565b60006020820190508181036000830152612c5881612c1c565b9050919050565b7f4552433732313a2063616c6c6572206973206e6f7420746f6b656e206f776e6560008201527f72206f7220617070726f76656400000000000000000000000000000000000000602082015250565b6000612cbb602d8361212e565b9150612cc682612c5f565b604082019050919050565b60006020820190508181036000830152612cea81612cae565b9050919050565b7f4552433732313a20696e76616c696420746f6b656e2049440000000000000000600082015250565b6000612d2760188361212e565b9150612d3282612cf1565b602082019050919050565b60006020820190508181036000830152612d5681612d1a565b9050919050565b7f4552433732313a2061646472657373207a65726f206973206e6f74206120766160008201527f6c6964206f776e65720000000000000000000000000000000000000000000000602082015250565b6000612db960298361212e565b9150612dc482612d5d565b604082019050919050565b60006020820190508181036000830152612de881612dac565b9050919050565b600081905092915050565b6000612e0582612123565b612e0f8185612def565b9350612e1f81856020860161213f565b80840191505092915050565b6000612e378284612dfa565b915081905092915050565b7f4e465420616c7265616479206d696e7465642100000000000000000000000000600082015250565b6000612e7860138361212e565b9150612e8382612e42565b602082019050919050565b60006020820190508181036000830152612ea781612e6b565b9050919050565b60008190508160005260206000209050919050565b60006020601f8301049050919050565b600082821b905092915050565b600060088302612f107fffffffffffffffffffffffffffffffffffffffffffffffffffffffffffffffff82612ed3565b612f1a8683612ed3565b95508019841693508086168417925050509392505050565b6000819050919050565b6000612f57612f52612f4d846120ef565b612f32565b6120ef565b9050919050565b6000819050919050565b612f7183612f3c565b612f85612f7d82612f5e565b848454612ee0565b825550505050565b600090565b612f9a612f8d565b612fa5818484612f68565b505050565b5b81811015612fc957612fbe600082612f92565b600181019050612fab565b5050565b601f82111561300e57612fdf81612eae565b612fe884612ec3565b81016020851015612ff7578190505b61300b61300385612ec3565b830182612faa565b50505b505050565b600082821c905092915050565b600061303160001984600802613013565b1980831691505092915050565b600061304a8383613020565b9150826002028217905092915050565b61306382612123565b67ffffffffffffffff81111561307c5761307b612380565b5b6130868254612b0a565b613091828285612fcd565b600060209050601f8311600181146130c457600084156130b2578287015190505b6130bc858261303e565b865550613124565b601f1984166130d286612eae565b60005b828110156130fa578489015182556001820191506020850194506020810190506130d5565b868310156131175784890151613113601f891682613020565b8355505b6001600288020188555050505b505050505050565b7f496e76616c696420696e707574206c656e677468730000000000000000000000600082015250565b600061316260158361212e565b915061316d8261312c565b602082019050919050565b6000602082019050818103600083015261319181613155565b9050919050565b7f4e487b7100000000000000000000000000000000000000000000000000000000600052603260045260246000fd5b7f4e487b7100000000000000000000000000000000000000000000000000000000600052601160045260246000fd5b6000613201826120ef565b91507fffffffffffffffffffffffffffffffffffffffffffffffffffffffffffffffff8203613233576132326131c7565b5b600182019050919050565b7f4f776e61626c653a206e6577206f776e657220697320746865207a65726f206160008201527f6464726573730000000000000000000000000000000000000000000000000000602082015250565b600061329a60268361212e565b91506132a58261323e565b604082019050919050565b600060208201905081810360008301526132c98161328d565b9050919050565b7f4552433732313a207472616e736665722066726f6d20696e636f72726563742060008201527f6f776e6572000000000000000000000000000000000000000000000000000000602082015250565b600061332c60258361212e565b9150613337826132d0565b604082019050919050565b6000602082019050818103600083015261335b8161331f565b9050919050565b7f4552433732313a207472616e7366657220746f20746865207a65726f2061646460008201527f7265737300000000000000000000000000000000000000000000000000000000602082015250565b60006133be60248361212e565b91506133c982613362565b604082019050919050565b600060208201905081810360008301526133ed816133b1565b9050919050565b7f4f776e61626c653a2063616c6c6572206973206e6f7420746865206f776e6572600082015250565b600061342a60208361212e565b9150613435826133f4565b602082019050919050565b600060208201905081810360008301526134598161341d565b9050919050565b7f4552433732313a206d696e7420746f20746865207a65726f2061646472657373600082015250565b600061349660208361212e565b91506134a182613460565b602082019050919050565b600060208201905081810360008301526134c581613489565b9050919050565b7f4552433732313a20746f6b656e20616c7265616479206d696e74656400000000600082015250565b6000613502601c8361212e565b915061350d826134cc565b602082019050919050565b60006020820190508181036000830152613531816134f5565b9050919050565b7f45524337323155524953746f726167653a2055524920736574206f66206e6f6e60008201527f6578697374656e7420746f6b656e000000000000000000000000000000000000602082015250565b6000613594602e8361212e565b915061359f82613538565b604082019050919050565b600060208201905081810360008301526135c381613587565b9050919050565b7f4552433732313a20617070726f766520746f2063616c6c657200000000000000600082015250565b600061360060198361212e565b915061360b826135ca565b602082019050919050565b6000602082019050818103600083015261362f816135f3565b9050919050565b7f4552433732313a207472616e7366657220746f206e6f6e20455243373231526560008201527f63656976657220696d706c656d656e7465720000000000000000000000000000602082015250565b600061369260328361212e565b915061369d82613636565b604082019050919050565b600060208201905081810360008301526136c181613685565b9050919050565b60006136d48285612dfa565b91506136e08284612dfa565b91508190509392505050565b600081519050919050565b600082825260208201905092915050565b6000613713826136ec565b61371d81856136f7565b935061372d81856020860161213f565b61373681612169565b840191505092915050565b60006080820190506137566000830187612260565b6137636020830186612260565b61377060408301856120f9565b81810360608301526137828184613708565b905095945050505050565b60008151905061379c81612060565b92915050565b6000602082840312156137b8576137b761202a565b5b60006137c68482850161378d565b91505092915050565b7f4e487b7100000000000000000000000000000000000000000000000000000000600052601260045260246000fdfea2646970667358221220e684da0484527c7454f6e0df9d04b46331820dbf609d3f30fcf33dbcc378385964736f6c63430008110033",
  "linkReferences": {},
  "deployedLinkReferences": {}
}